{
  "contractName": "product",
  "abi": [
    {
      "inputs": [
        {
          "internalType": "uint256",
          "name": "",
          "type": "uint256"
        }
      ],
      "name": "productItems",
      "outputs": [
        {
          "internalType": "uint256",
          "name": "productId",
          "type": "uint256"
        },
        {
          "internalType": "bytes32",
          "name": "productSN",
          "type": "bytes32"
        },
        {
          "internalType": "bytes32",
          "name": "productName",
          "type": "bytes32"
        },
        {
          "internalType": "bytes32",
          "name": "productBrand",
          "type": "bytes32"
        },
        {
          "internalType": "uint256",
          "name": "productCost",
          "type": "uint256"
        },
        {
          "internalType": "bytes32",
          "name": "productStatus",
          "type": "bytes32"
        }
      ],
      "stateMutability": "view",
      "type": "function",
      "constant": true
    },
    {
      "inputs": [
        {
          "internalType": "bytes32",
          "name": "",
          "type": "bytes32"
        }
      ],
      "name": "productMap",
      "outputs": [
        {
          "internalType": "uint256",
          "name": "",
          "type": "uint256"
        }
      ],
      "stateMutability": "view",
      "type": "function",
      "constant": true
    },
    {
      "inputs": [
        {
          "internalType": "bytes32",
          "name": "",
          "type": "bytes32"
        }
      ],
      "name": "productsForSale",
      "outputs": [
        {
          "internalType": "bytes32",
          "name": "",
          "type": "bytes32"
        }
      ],
      "stateMutability": "view",
      "type": "function",
      "constant": true
    },
    {
      "inputs": [
        {
          "internalType": "bytes32",
          "name": "",
          "type": "bytes32"
        }
      ],
      "name": "productsManufactured",
      "outputs": [
        {
          "internalType": "bytes32",
          "name": "",
          "type": "bytes32"
        }
      ],
      "stateMutability": "view",
      "type": "function",
      "constant": true
    },
    {
      "inputs": [
        {
          "internalType": "bytes32",
          "name": "",
          "type": "bytes32"
        }
      ],
      "name": "productsSold",
      "outputs": [
        {
          "internalType": "bytes32",
          "name": "",
          "type": "bytes32"
        }
      ],
      "stateMutability": "view",
      "type": "function",
      "constant": true
    },
    {
      "inputs": [
        {
          "internalType": "bytes32",
          "name": "",
          "type": "bytes32"
        },
        {
          "internalType": "uint256",
          "name": "",
          "type": "uint256"
        }
      ],
      "name": "productsWithCustomer",
      "outputs": [
        {
          "internalType": "bytes32",
          "name": "",
          "type": "bytes32"
        }
      ],
      "stateMutability": "view",
      "type": "function",
      "constant": true
    },
    {
      "inputs": [
        {
          "internalType": "bytes32",
          "name": "",
          "type": "bytes32"
        },
        {
          "internalType": "uint256",
          "name": "",
          "type": "uint256"
        }
      ],
      "name": "productsWithRetailer",
      "outputs": [
        {
          "internalType": "bytes32",
          "name": "",
          "type": "bytes32"
        }
      ],
      "stateMutability": "view",
      "type": "function",
      "constant": true
    },
    {
      "inputs": [
        {
          "internalType": "bytes32",
          "name": "",
          "type": "bytes32"
        },
        {
          "internalType": "uint256",
          "name": "",
          "type": "uint256"
        }
      ],
      "name": "retailerWithManufacturer",
      "outputs": [
        {
          "internalType": "bytes32",
          "name": "",
          "type": "bytes32"
        }
      ],
      "stateMutability": "view",
      "type": "function",
      "constant": true
    },
    {
      "inputs": [
        {
          "internalType": "uint256",
          "name": "",
          "type": "uint256"
        }
      ],
      "name": "retailers",
      "outputs": [
        {
          "internalType": "uint256",
          "name": "retailerId",
          "type": "uint256"
        },
        {
          "internalType": "bytes32",
          "name": "retailerName",
          "type": "bytes32"
        },
        {
          "internalType": "bytes32",
          "name": "retailerBrand",
          "type": "bytes32"
        },
        {
          "internalType": "bytes32",
          "name": "retailerCode",
          "type": "bytes32"
        },
        {
          "internalType": "uint256",
          "name": "retailerNum",
          "type": "uint256"
        },
        {
          "internalType": "bytes32",
          "name": "retailerManager",
          "type": "bytes32"
        },
        {
          "internalType": "bytes32",
          "name": "retailerAddress",
          "type": "bytes32"
        }
      ],
      "stateMutability": "view",
      "type": "function",
      "constant": true
    },
    {
      "inputs": [
        {
          "internalType": "bytes32",
          "name": "_manufacturerId",
          "type": "bytes32"
        },
        {
          "internalType": "bytes32",
          "name": "_retailerName",
          "type": "bytes32"
        },
        {
          "internalType": "bytes32",
          "name": "_retailerBrand",
          "type": "bytes32"
        },
        {
          "internalType": "bytes32",
          "name": "_retailerCode",
          "type": "bytes32"
        },
        {
          "internalType": "uint256",
          "name": "_retailerNum",
          "type": "uint256"
        },
        {
          "internalType": "bytes32",
          "name": "_retailerManager",
          "type": "bytes32"
        },
        {
          "internalType": "bytes32",
          "name": "_retailerAddress",
          "type": "bytes32"
        }
      ],
      "name": "addRetailer",
      "outputs": [],
      "stateMutability": "nonpayable",
      "type": "function"
    },
    {
      "inputs": [],
      "name": "viewRetailer",
      "outputs": [
        {
          "internalType": "uint256[]",
          "name": "",
          "type": "uint256[]"
        },
        {
          "internalType": "bytes32[]",
          "name": "",
          "type": "bytes32[]"
        },
        {
          "internalType": "bytes32[]",
          "name": "",
          "type": "bytes32[]"
        },
        {
          "internalType": "bytes32[]",
          "name": "",
          "type": "bytes32[]"
        },
        {
          "internalType": "uint256[]",
          "name": "",
          "type": "uint256[]"
        },
        {
          "internalType": "bytes32[]",
          "name": "",
          "type": "bytes32[]"
        },
        {
          "internalType": "bytes32[]",
          "name": "",
          "type": "bytes32[]"
        }
      ],
      "stateMutability": "view",
      "type": "function",
      "constant": true
    },
    {
      "inputs": [
        {
          "internalType": "bytes32",
          "name": "_manufactuerID",
          "type": "bytes32"
        },
        {
          "internalType": "bytes32",
          "name": "_productName",
          "type": "bytes32"
        },
        {
          "internalType": "bytes32",
          "name": "_productSN",
          "type": "bytes32"
        },
        {
          "internalType": "bytes32",
          "name": "_productBrand",
          "type": "bytes32"
        },
        {
          "internalType": "uint256",
          "name": "_productCost",
          "type": "uint256"
        }
      ],
      "name": "addProduct",
      "outputs": [],
      "stateMutability": "nonpayable",
      "type": "function"
    },
    {
      "inputs": [],
      "name": "viewProductItems",
      "outputs": [
        {
          "internalType": "uint256[]",
          "name": "",
          "type": "uint256[]"
        },
        {
          "internalType": "bytes32[]",
          "name": "",
          "type": "bytes32[]"
        },
        {
          "internalType": "bytes32[]",
          "name": "",
          "type": "bytes32[]"
        },
        {
          "internalType": "bytes32[]",
          "name": "",
          "type": "bytes32[]"
        },
        {
          "internalType": "uint256[]",
          "name": "",
          "type": "uint256[]"
        },
        {
          "internalType": "bytes32[]",
          "name": "",
          "type": "bytes32[]"
        }
      ],
      "stateMutability": "view",
      "type": "function",
      "constant": true
    },
    {
      "inputs": [
        {
          "internalType": "bytes32",
          "name": "_productSN",
          "type": "bytes32"
        },
        {
          "internalType": "bytes32",
          "name": "_retailerCode",
          "type": "bytes32"
        }
      ],
      "name": "manufacturerSellProduct",
      "outputs": [],
      "stateMutability": "nonpayable",
      "type": "function"
    },
    {
      "inputs": [
        {
          "internalType": "bytes32",
          "name": "_productSN",
          "type": "bytes32"
        },
        {
          "internalType": "bytes32",
          "name": "_customerCode",
          "type": "bytes32"
        }
      ],
      "name": "retailerSellProduct",
      "outputs": [],
      "stateMutability": "nonpayable",
      "type": "function"
    },
    {
      "inputs": [
        {
          "internalType": "bytes32",
          "name": "_retailerCode",
          "type": "bytes32"
        }
      ],
      "name": "queryProductsList",
      "outputs": [
        {
          "internalType": "uint256[]",
          "name": "",
          "type": "uint256[]"
        },
        {
          "internalType": "bytes32[]",
          "name": "",
          "type": "bytes32[]"
        },
        {
          "internalType": "bytes32[]",
          "name": "",
          "type": "bytes32[]"
        },
        {
          "internalType": "bytes32[]",
          "name": "",
          "type": "bytes32[]"
        },
        {
          "internalType": "uint256[]",
          "name": "",
          "type": "uint256[]"
        },
        {
          "internalType": "bytes32[]",
          "name": "",
          "type": "bytes32[]"
        }
      ],
      "stateMutability": "view",
      "type": "function",
      "constant": true
    },
    {
      "inputs": [
        {
          "internalType": "bytes32",
          "name": "_manufacturerCode",
          "type": "bytes32"
        }
      ],
      "name": "queryRetailersList",
      "outputs": [
        {
          "internalType": "uint256[]",
          "name": "",
          "type": "uint256[]"
        },
        {
          "internalType": "bytes32[]",
          "name": "",
          "type": "bytes32[]"
        },
        {
          "internalType": "bytes32[]",
          "name": "",
          "type": "bytes32[]"
        },
        {
          "internalType": "bytes32[]",
          "name": "",
          "type": "bytes32[]"
        },
        {
          "internalType": "uint256[]",
          "name": "",
          "type": "uint256[]"
        },
        {
          "internalType": "bytes32[]",
          "name": "",
          "type": "bytes32[]"
        },
        {
          "internalType": "bytes32[]",
          "name": "",
          "type": "bytes32[]"
        }
      ],
      "stateMutability": "view",
      "type": "function",
      "constant": true
    },
    {
      "inputs": [
        {
          "internalType": "bytes32",
          "name": "_customerCode",
          "type": "bytes32"
        }
      ],
      "name": "getPurchaseHistory",
      "outputs": [
        {
          "internalType": "bytes32[]",
          "name": "",
          "type": "bytes32[]"
        },
        {
          "internalType": "bytes32[]",
          "name": "",
          "type": "bytes32[]"
        },
        {
          "internalType": "bytes32[]",
          "name": "",
          "type": "bytes32[]"
        }
      ],
      "stateMutability": "view",
      "type": "function",
      "constant": true
    },
    {
      "inputs": [
        {
          "internalType": "bytes32",
          "name": "_productSN",
          "type": "bytes32"
        },
        {
          "internalType": "bytes32",
          "name": "_customerCode",
          "type": "bytes32"
        }
      ],
      "name": "verifyProduct",
      "outputs": [
        {
          "internalType": "bool",
          "name": "",
          "type": "bool"
        }
      ],
      "stateMutability": "view",
      "type": "function",
      "constant": true
    }
  ],
  "bytecode": "0x608060405234801561001057600080fd5b5061234d806100206000396000f3fe608060405234801561001057600080fd5b50600436106101215760003560e01c806392162bc4116100ad578063c588e52711610071578063c588e52714610398578063caaf2751146103c8578063cd4f6a2e146103fd578063d0f696061461042d578063d83612fe1461044957610121565b806392162bc4146102b55780639316bff0146102ea5780639ea4695d14610306578063a090f47c14610338578063c20805b41461036857610121565b8063344b5d51116100f4578063344b5d51146101df57806341011e551461020f57806383f355111461023f5780638577a70114610263578063897ec7df1461027f57610121565b80630b2b604314610126578063100b6ba21461015c5780631836bd4b1461018c57806330b79fbe146101af575b600080fd5b610140600480360381019061013b9190611bc7565b610465565b6040516101539796959493929190611d7a565b60405180910390f35b61017660048036038101906101719190611bc7565b610928565b6040516101839190611e29565b60405180910390f35b610194610940565b6040516101a696959493929190611e44565b60405180910390f35b6101c960048036038101906101c49190611efb565b610ca8565b6040516101d69190611f4a565b60405180910390f35b6101f960048036038101906101f49190611f65565b610cd9565b6040516102069190611fc0565b60405180910390f35b61022960048036038101906102249190611efb565b610d0a565b6040516102369190611f4a565b60405180910390f35b610247610d3b565b60405161025a9796959493929190611d7a565b60405180910390f35b61027d60048036038101906102789190611f65565b611128565b005b61029960048036038101906102949190611fdb565b61117e565b6040516102ac9796959493929190612008565b60405180910390f35b6102cf60048036038101906102ca9190611bc7565b6111c0565b6040516102e196959493929190611e44565b60405180910390f35b61030460048036038101906102ff9190612077565b6115f9565b005b610320600480360381019061031b9190611bc7565b6116ed565b60405161032f939291906120f2565b60405180910390f35b610352600480360381019061034d9190611bc7565b6118c1565b60405161035f9190611f4a565b60405180910390f35b610382600480360381019061037d9190611bc7565b6118d9565b60405161038f9190611f4a565b60405180910390f35b6103b260048036038101906103ad9190611efb565b6118f1565b6040516103bf9190611f4a565b60405180910390f35b6103e260048036038101906103dd9190611fdb565b611922565b6040516103f49695949392919061213e565b60405180910390f35b61041760048036038101906104129190611bc7565b61195e565b6040516104249190611f4a565b60405180910390f35b6104476004803603810190610442919061219f565b611976565b005b610463600480360381019061045e9190611f65565b611a62565b005b60608060608060608060606000600a60008a81526020019081526020016000208054806020026020016040519081016040528092919081815260200182805480156104cf57602002820191906000526020600020905b8154815260200190600101908083116104bb575b50505050509050600080805467ffffffffffffffff8111156104f4576104f3612241565b5b6040519080825280602002602001820160405280156105225781602001602082028036833780820191505090505b5090506000805467ffffffffffffffff81111561054257610541612241565b5b6040519080825280602002602001820160405280156105705781602001602082028036833780820191505090505b5090506000805467ffffffffffffffff8111156105905761058f612241565b5b6040519080825280602002602001820160405280156105be5781602001602082028036833780820191505090505b5090506000805467ffffffffffffffff8111156105de576105dd612241565b5b60405190808252806020026020018201604052801561060c5781602001602082028036833780820191505090505b5090506000805467ffffffffffffffff81111561062c5761062b612241565b5b60405190808252806020026020018201604052801561065a5781602001602082028036833780820191505090505b5090506000805467ffffffffffffffff81111561067a57610679612241565b5b6040519080825280602002602001820160405280156106a85781602001602082028036833780820191505090505b5090506000805467ffffffffffffffff8111156106c8576106c7612241565b5b6040519080825280602002602001820160405280156106f65781602001602082028036833780820191505090505b50905060005b6000548110156108fe5760005b8a518110156108ea578a818151811061072557610724612270565b5b6020026020010151600260008481526020019081526020016000206003015414156108d7576002600083815260200190815260200160002060000154898b8151811061077457610773612270565b5b6020026020010181815250506002600083815260200190815260200160002060010154888b815181106107aa576107a9612270565b5b6020026020010181815250506002600083815260200190815260200160002060020154878b815181106107e0576107df612270565b5b6020026020010181815250506002600083815260200190815260200160002060030154868b8151811061081657610815612270565b5b6020026020010181815250506002600083815260200190815260200160002060040154858b8151811061084c5761084b612270565b5b6020026020010181815250506002600083815260200190815260200160002060050154848b8151811061088257610881612270565b5b6020026020010181815250506002600083815260200190815260200160002060060154838b815181106108b8576108b7612270565b5b60200260200101818152505089806108cf906122ce565b9a50506108ea565b80806108e2906122ce565b915050610709565b5080806108f6906122ce565b9150506106fc565b50868686868686869f509f509f509f509f509f509f50505050505050505050919395979092949650565b60046020528060005260406000206000915090505481565b606080606080606080600060015467ffffffffffffffff81111561096757610966612241565b5b6040519080825280602002602001820160405280156109955781602001602082028036833780820191505090505b509050600060015467ffffffffffffffff8111156109b6576109b5612241565b5b6040519080825280602002602001820160405280156109e45781602001602082028036833780820191505090505b509050600060015467ffffffffffffffff811115610a0557610a04612241565b5b604051908082528060200260200182016040528015610a335781602001602082028036833780820191505090505b509050600060015467ffffffffffffffff811115610a5457610a53612241565b5b604051908082528060200260200182016040528015610a825781602001602082028036833780820191505090505b509050600060015467ffffffffffffffff811115610aa357610aa2612241565b5b604051908082528060200260200182016040528015610ad15781602001602082028036833780820191505090505b509050600060015467ffffffffffffffff811115610af257610af1612241565b5b604051908082528060200260200182016040528015610b205781602001602082028036833780820191505090505b50905060005b600154811015610c87576003600082815260200190815260200160002060000154878281518110610b5a57610b59612270565b5b6020026020010181815250506003600082815260200190815260200160002060010154868281518110610b9057610b8f612270565b5b6020026020010181815250506003600082815260200190815260200160002060020154858281518110610bc657610bc5612270565b5b6020026020010181815250506003600082815260200190815260200160002060030154848281518110610bfc57610bfb612270565b5b6020026020010181815250506003600082815260200190815260200160002060040154838281518110610c3257610c31612270565b5b6020026020010181815250506003600082815260200190815260200160002060050154828281518110610c6857610c67612270565b5b6020026020010181815250508080610c7f906122ce565b915050610b26565b508585858585859b509b509b509b509b509b50505050505050909192939495565b60086020528160005260406000208181548110610cc457600080fd5b90600052602060002001600091509150505481565b60008160076000858152602001908152602001600020541415610cff5760019050610d04565b600090505b92915050565b600a6020528160005260406000208181548110610d2657600080fd5b90600052602060002001600091509150505481565b60608060608060608060606000805467ffffffffffffffff811115610d6357610d62612241565b5b604051908082528060200260200182016040528015610d915781602001602082028036833780820191505090505b5090506000805467ffffffffffffffff811115610db157610db0612241565b5b604051908082528060200260200182016040528015610ddf5781602001602082028036833780820191505090505b5090506000805467ffffffffffffffff811115610dff57610dfe612241565b5b604051908082528060200260200182016040528015610e2d5781602001602082028036833780820191505090505b5090506000805467ffffffffffffffff811115610e4d57610e4c612241565b5b604051908082528060200260200182016040528015610e7b5781602001602082028036833780820191505090505b5090506000805467ffffffffffffffff811115610e9b57610e9a612241565b5b604051908082528060200260200182016040528015610ec95781602001602082028036833780820191505090505b5090506000805467ffffffffffffffff811115610ee957610ee8612241565b5b604051908082528060200260200182016040528015610f175781602001602082028036833780820191505090505b5090506000805467ffffffffffffffff811115610f3757610f36612241565b5b604051908082528060200260200182016040528015610f655781602001602082028036833780820191505090505b50905060005b600054811015611102576002600082815260200190815260200160002060000154888281518110610f9f57610f9e612270565b5b6020026020010181815250506002600082815260200190815260200160002060010154878281518110610fd557610fd4612270565b5b602002602001018181525050600260008281526020019081526020016000206002015486828151811061100b5761100a612270565b5b602002602001018181525050600260008281526020019081526020016000206003015485828151811061104157611040612270565b5b602002602001018181525050600260008281526020019081526020016000206004015484828151811061107757611076612270565b5b60200260200101818152505060026000828152602001908152602001600020600501548382815181106110ad576110ac612270565b5b60200260200101818152505060026000828152602001908152602001600020600601548282815181106110e3576110e2612270565b5b60200260200101818152505080806110fa906122ce565b915050610f6b565b50868686868686869d509d509d509d509d509d509d505050505050505090919293949596565b600860008281526020019081526020016000208290806001815401808255809150506001900390600052602060002001600090919091909150558060066000848152602001908152602001600020819055505050565b60026020528060005260406000206000915090508060000154908060010154908060020154908060030154908060040154908060050154908060060154905087565b60608060608060608060006008600089815260200190815260200160002080548060200260200160405190810160405280929190818152602001828054801561122857602002820191906000526020600020905b815481526020019060010190808311611214575b5050505050905060008060015467ffffffffffffffff81111561124e5761124d612241565b5b60405190808252806020026020018201604052801561127c5781602001602082028036833780820191505090505b509050600060015467ffffffffffffffff81111561129d5761129c612241565b5b6040519080825280602002602001820160405280156112cb5781602001602082028036833780820191505090505b509050600060015467ffffffffffffffff8111156112ec576112eb612241565b5b60405190808252806020026020018201604052801561131a5781602001602082028036833780820191505090505b509050600060015467ffffffffffffffff81111561133b5761133a612241565b5b6040519080825280602002602001820160405280156113695781602001602082028036833780820191505090505b509050600060015467ffffffffffffffff81111561138a57611389612241565b5b6040519080825280602002602001820160405280156113b85781602001602082028036833780820191505090505b509050600060015467ffffffffffffffff8111156113d9576113d8612241565b5b6040519080825280602002602001820160405280156114075781602001602082028036833780820191505090505b50905060005b6001548110156115d55760005b89518110156115c15789818151811061143657611435612270565b5b6020026020010151600360008481526020019081526020016000206001015414156115ae576003600083815260200190815260200160002060000154888a8151811061148557611484612270565b5b6020026020010181815250506003600083815260200190815260200160002060010154878a815181106114bb576114ba612270565b5b6020026020010181815250506003600083815260200190815260200160002060020154868a815181106114f1576114f0612270565b5b6020026020010181815250506003600083815260200190815260200160002060030154858a8151811061152757611526612270565b5b6020026020010181815250506003600083815260200190815260200160002060040154848a8151811061155d5761155c612270565b5b6020026020010181815250506003600083815260200190815260200160002060050154838a8151811061159357611592612270565b5b60200260200101818152505088806115aa906122ce565b9950505b80806115b9906122ce565b91505061141a565b5080806115cd906122ce565b91505061140d565b508585858585859d509d509d509d509d509d50505050505050505091939550919395565b6040518060c0016040528060015481526020018481526020018581526020018381526020018281526020017f417661696c61626c650000000000000000000000000000000000000000000000815250600360006001548152602001908152602001600020600082015181600001556020820151816001015560408201518160020155606082015181600301556080820151816004015560a082015181600501559050506001546004600085815260200190815260200160002081905550600160008154809291906116c9906122ce565b91905055508460056000858152602001908152602001600020819055505050505050565b606080606060006009600086815260200190815260200160002080548060200260200160405190810160405280929190818152602001828054801561175157602002820191906000526020600020905b81548152602001906001019080831161173d575b505050505090506000815167ffffffffffffffff81111561177557611774612241565b5b6040519080825280602002602001820160405280156117a35781602001602082028036833780820191505090505b5090506000825167ffffffffffffffff8111156117c3576117c2612241565b5b6040519080825280602002602001820160405280156117f15781602001602082028036833780820191505090505b50905060005b83518110156118ad576006600085838151811061181757611816612270565b5b602002602001015181526020019081526020016000205483828151811061184157611840612270565b5b6020026020010181815250506005600085838151811061186457611863612270565b5b602002602001015181526020019081526020016000205482828151811061188e5761188d612270565b5b60200260200101818152505080806118a5906122ce565b9150506117f7565b508282829550955095505050509193909250565b60066020528060005260406000206000915090505481565b60056020528060005260406000206000915090505481565b6009602052816000526040600020818154811061190d57600080fd5b90600052602060002001600091509150505481565b60036020528060005260406000206000915090508060000154908060010154908060020154908060030154908060040154908060050154905086565b60076020528060005260406000206000915090505481565b6040518060e001604052806000548152602001878152602001868152602001858152602001848152602001838152602001828152506002600080548152602001908152602001600020600082015181600001556020820151816001015560408201518160020155606082015181600301556080820151816004015560a0820151816005015560c08201518160060155905050600080815480929190611a1a906122ce565b9190505550600a600088815260200190815260200160002084908060018154018082558091505060019003906000526020600020016000909190919091505550505050505050565b6000806000806001541115611ab657600091505b600154821015611ab5578460036000848152602001908152602001600020600101541415611aa2578190505b8180611aad906122ce565b925050611a76565b5b600360008281526020019081526020016000206005015492507f417661696c61626c650000000000000000000000000000000000000000000000831415611b85577f4e410000000000000000000000000000000000000000000000000000000000006003600083815260200190815260200160002060050181905550600960008581526020019081526020016000208590806001815401808255809150506001900390600052602060002001600090919091909150558360076000878152602001908152602001600020819055505b5050505050565b600080fd5b6000819050919050565b611ba481611b91565b8114611baf57600080fd5b50565b600081359050611bc181611b9b565b92915050565b600060208284031215611bdd57611bdc611b8c565b5b6000611beb84828501611bb2565b91505092915050565b600081519050919050565b600082825260208201905092915050565b6000819050602082019050919050565b6000819050919050565b611c3381611c20565b82525050565b6000611c458383611c2a565b60208301905092915050565b6000602082019050919050565b6000611c6982611bf4565b611c738185611bff565b9350611c7e83611c10565b8060005b83811015611caf578151611c968882611c39565b9750611ca183611c51565b925050600181019050611c82565b5085935050505092915050565b600081519050919050565b600082825260208201905092915050565b6000819050602082019050919050565b611cf181611b91565b82525050565b6000611d038383611ce8565b60208301905092915050565b6000602082019050919050565b6000611d2782611cbc565b611d318185611cc7565b9350611d3c83611cd8565b8060005b83811015611d6d578151611d548882611cf7565b9750611d5f83611d0f565b925050600181019050611d40565b5085935050505092915050565b600060e0820190508181036000830152611d94818a611c5e565b90508181036020830152611da88189611d1c565b90508181036040830152611dbc8188611d1c565b90508181036060830152611dd08187611d1c565b90508181036080830152611de48186611c5e565b905081810360a0830152611df88185611d1c565b905081810360c0830152611e0c8184611d1c565b905098975050505050505050565b611e2381611c20565b82525050565b6000602082019050611e3e6000830184611e1a565b92915050565b600060c0820190508181036000830152611e5e8189611c5e565b90508181036020830152611e728188611d1c565b90508181036040830152611e868187611d1c565b90508181036060830152611e9a8186611d1c565b90508181036080830152611eae8185611c5e565b905081810360a0830152611ec28184611d1c565b9050979650505050505050565b611ed881611c20565b8114611ee357600080fd5b50565b600081359050611ef581611ecf565b92915050565b60008060408385031215611f1257611f11611b8c565b5b6000611f2085828601611bb2565b9250506020611f3185828601611ee6565b9150509250929050565b611f4481611b91565b82525050565b6000602082019050611f5f6000830184611f3b565b92915050565b60008060408385031215611f7c57611f7b611b8c565b5b6000611f8a85828601611bb2565b9250506020611f9b85828601611bb2565b9150509250929050565b60008115159050919050565b611fba81611fa5565b82525050565b6000602082019050611fd56000830184611fb1565b92915050565b600060208284031215611ff157611ff0611b8c565b5b6000611fff84828501611ee6565b91505092915050565b600060e08201905061201d600083018a611e1a565b61202a6020830189611f3b565b6120376040830188611f3b565b6120446060830187611f3b565b6120516080830186611e1a565b61205e60a0830185611f3b565b61206b60c0830184611f3b565b98975050505050505050565b600080600080600060a0868803121561209357612092611b8c565b5b60006120a188828901611bb2565b95505060206120b288828901611bb2565b94505060406120c388828901611bb2565b93505060606120d488828901611bb2565b92505060806120e588828901611ee6565b9150509295509295909350565b6000606082019050818103600083015261210c8186611d1c565b905081810360208301526121208185611d1c565b905081810360408301526121348184611d1c565b9050949350505050565b600060c0820190506121536000830189611e1a565b6121606020830188611f3b565b61216d6040830187611f3b565b61217a6060830186611f3b565b6121876080830185611e1a565b61219460a0830184611f3b565b979650505050505050565b600080600080600080600060e0888a0312156121be576121bd611b8c565b5b60006121cc8a828b01611bb2565b97505060206121dd8a828b01611bb2565b96505060406121ee8a828b01611bb2565b95505060606121ff8a828b01611bb2565b94505060806122108a828b01611ee6565b93505060a06122218a828b01611bb2565b92505060c06122328a828b01611bb2565b91505092959891949750929550565b7f4e487b7100000000000000000000000000000000000000000000000000000000600052604160045260246000fd5b7f4e487b7100000000000000000000000000000000000000000000000000000000600052603260045260246000fd5b7f4e487b7100000000000000000000000000000000000000000000000000000000600052601160045260246000fd5b60006122d982611c20565b91507fffffffffffffffffffffffffffffffffffffffffffffffffffffffffffffffff82141561230c5761230b61229f565b5b60018201905091905056fea2646970667358221220341b55a193588c360f77f76671804358b8116865e39e0fe14200461eaecee0c664736f6c634300080c0033",
  "immutableReferences": {},
  "source": "// SPDX-License-Identifier: MIT\r\npragma solidity ^0.8.12;\r\n\r\ncontract product {\r\n\r\n    uint256 retailerCount;\r\n    uint256 productCount;\r\n\r\n    struct retailer{\r\n        uint256 retailerId;\r\n        bytes32 retailerName;\r\n        bytes32 retailerBrand;\r\n        bytes32 retailerCode;\r\n        uint256 retailerNum;\r\n        bytes32 retailerManager;\r\n        bytes32 retailerAddress;\r\n    }\r\n    mapping(uint=>retailer) public retailers;\r\n\r\n    struct productItem{\r\n        uint256 productId;\r\n        bytes32 productSN;\r\n        bytes32 productName;\r\n        bytes32 productBrand;\r\n        uint256 productCost;\r\n        bytes32 productStatus;\r\n    }\r\n\r\n    mapping(uint256=>productItem) public productItems;\r\n    mapping(bytes32=>uint256) public productMap;\r\n    mapping(bytes32=>bytes32) public productsManufactured;\r\n    mapping(bytes32=>bytes32) public productsForSale;\r\n    mapping(bytes32=>bytes32) public productsSold;\r\n    mapping(bytes32=>bytes32[]) public productsWithRetailer;\r\n    mapping(bytes32=>bytes32[]) public productsWithCustomer;\r\n    mapping(bytes32=>bytes32[]) public retailerWithManufacturer;\r\n\r\n\r\n    //SELLER SECTION\r\n\r\n    function addRetailer(bytes32 _manufacturerId, bytes32 _retailerName, bytes32 _retailerBrand, bytes32 _retailerCode,\r\n    uint256 _retailerNum, bytes32 _retailerManager, bytes32 _retailerAddress) public{\r\n        retailers[retailerCount] = retailer(retailerCount, _retailerName, _retailerBrand, _retailerCode,\r\n        _retailerNum, _retailerManager, _retailerAddress);\r\n        retailerCount++;\r\n\r\n        retailerWithManufacturer[_manufacturerId].push(_retailerCode);\r\n    }\r\n\r\n\r\n    function viewRetailer () public view returns(uint256[] memory, bytes32[] memory, bytes32[] memory, bytes32[] memory, uint256[] memory, bytes32[] memory, bytes32[] memory) {\r\n        uint256[] memory ids = new uint256[](retailerCount);\r\n        bytes32[] memory snames = new bytes32[](retailerCount);\r\n        bytes32[] memory sbrands = new bytes32[](retailerCount);\r\n        bytes32[] memory scodes = new bytes32[](retailerCount);\r\n        uint256[] memory snums = new uint256[](retailerCount);\r\n        bytes32[] memory smanagers = new bytes32[](retailerCount);\r\n        bytes32[] memory saddress = new bytes32[](retailerCount);\r\n        \r\n        for(uint i=0; i<retailerCount; i++){\r\n            ids[i] = retailers[i].retailerId;\r\n            snames[i] = retailers[i].retailerName;\r\n            sbrands[i] = retailers[i].retailerBrand;\r\n            scodes[i] = retailers[i].retailerCode;\r\n            snums[i] = retailers[i].retailerNum;\r\n            smanagers[i] = retailers[i].retailerManager;\r\n            saddress[i] = retailers[i].retailerAddress;\r\n        }\r\n        return(ids, snames, sbrands, scodes, snums, smanagers, saddress);\r\n    }\r\n\r\n    //PRODUCT SECTION\r\n\r\n    function addProduct(bytes32 _manufactuerID, bytes32 _productName, bytes32 _productSN, bytes32 _productBrand,\r\n    uint256 _productCost) public{\r\n        productItems[productCount] = productItem(productCount, _productSN, _productName, _productBrand,\r\n        _productCost, \"Available\");\r\n        productMap[_productSN] = productCount;\r\n        productCount++;\r\n        productsManufactured[_productSN] = _manufactuerID;\r\n    }\r\n\r\n\r\n    function viewProductItems () public view returns(uint256[] memory, bytes32[] memory, bytes32[] memory, bytes32[] memory, uint256[] memory, bytes32[] memory) {\r\n        uint256[] memory pids = new uint256[](productCount);\r\n        bytes32[] memory pSNs = new bytes32[](productCount);\r\n        bytes32[] memory pnames = new bytes32[](productCount);\r\n        bytes32[] memory pbrands = new bytes32[](productCount);\r\n        uint256[] memory pcosts = new uint256[](productCount);\r\n        bytes32[] memory pstatus = new bytes32[](productCount);\r\n        \r\n        for(uint i=0; i<productCount; i++){\r\n            pids[i] = productItems[i].productId;\r\n            pSNs[i] = productItems[i].productSN;\r\n            pnames[i] = productItems[i].productName;\r\n            pbrands[i] = productItems[i].productBrand;\r\n            pcosts[i] = productItems[i].productCost;\r\n            pstatus[i] = productItems[i].productStatus;\r\n        }\r\n        return(pids, pSNs, pnames, pbrands, pcosts, pstatus);\r\n    }\r\n\r\n    //SELL Product\r\n\r\n    function manufacturerSellProduct(bytes32 _productSN, bytes32 _retailerCode) public{\r\n        productsWithRetailer[_retailerCode].push(_productSN);\r\n        productsForSale[_productSN] = _retailerCode;\r\n\r\n    }\r\n\r\n    function retailerSellProduct(bytes32 _productSN, bytes32 _customerCode) public{   \r\n        bytes32 pStatus;\r\n        uint256 i;\r\n        uint256 j=0;\r\n\r\n        if(productCount>0) {\r\n            for(i=0;i<productCount;i++) {\r\n                if(productItems[i].productSN == _productSN) {\r\n                    j=i;\r\n                }\r\n            }\r\n        }\r\n\r\n        pStatus = productItems[j].productStatus;\r\n        if(pStatus == \"Available\") {\r\n            productItems[j].productStatus = \"NA\";\r\n            productsWithCustomer[_customerCode].push(_productSN);\r\n            productsSold[_productSN] = _customerCode;\r\n        }\r\n\r\n\r\n    }\r\n\r\n\r\n    function queryProductsList(bytes32 _retailerCode) public view returns(uint256[] memory, bytes32[] memory, bytes32[] memory, bytes32[] memory, uint256[] memory, bytes32[] memory){\r\n        bytes32[] memory productSNs = productsWithRetailer[_retailerCode];\r\n        uint256 k=0;\r\n\r\n        uint256[] memory pids = new uint256[](productCount);\r\n        bytes32[] memory pSNs = new bytes32[](productCount);\r\n        bytes32[] memory pnames = new bytes32[](productCount);\r\n        bytes32[] memory pbrands = new bytes32[](productCount);\r\n        uint256[] memory pcosts = new uint256[](productCount);\r\n        bytes32[] memory pstatus = new bytes32[](productCount);\r\n\r\n        \r\n        for(uint i=0; i<productCount; i++){\r\n            for(uint j=0; j<productSNs.length; j++){\r\n                if(productItems[i].productSN==productSNs[j]){\r\n                    pids[k] = productItems[i].productId;\r\n                    pSNs[k] = productItems[i].productSN;\r\n                    pnames[k] = productItems[i].productName;\r\n                    pbrands[k] = productItems[i].productBrand;\r\n                    pcosts[k] = productItems[i].productCost;\r\n                    pstatus[k] = productItems[i].productStatus;\r\n                    k++;\r\n                }\r\n            }\r\n        }\r\n        return(pids, pSNs, pnames, pbrands, pcosts, pstatus);\r\n    }\r\n\r\n    function queryRetailersList (bytes32 _manufacturerCode) public view returns(uint256[] memory, bytes32[] memory, bytes32[] memory, bytes32[] memory, uint256[] memory, bytes32[] memory, bytes32[] memory) {\r\n        bytes32[] memory retailerCodes = retailerWithManufacturer[_manufacturerCode];\r\n        uint256 k=0;\r\n        uint256[] memory ids = new uint256[](retailerCount);\r\n        bytes32[] memory snames = new bytes32[](retailerCount);\r\n        bytes32[] memory sbrands = new bytes32[](retailerCount);\r\n        bytes32[] memory scodes = new bytes32[](retailerCount);\r\n        uint256[] memory snums = new uint256[](retailerCount);\r\n        bytes32[] memory smanagers = new bytes32[](retailerCount);\r\n        bytes32[] memory saddress = new bytes32[](retailerCount);\r\n        \r\n        for(uint i=0; i<retailerCount; i++){\r\n            for(uint j=0; j<retailerCodes.length; j++){\r\n                if(retailers[i].retailerCode==retailerCodes[j]){\r\n                    ids[k] = retailers[i].retailerId;\r\n                    snames[k] = retailers[i].retailerName;\r\n                    sbrands[k] = retailers[i].retailerBrand;\r\n                    scodes[k] = retailers[i].retailerCode;\r\n                    snums[k] = retailers[i].retailerNum;\r\n                    smanagers[k] = retailers[i].retailerManager;\r\n                    saddress[k] = retailers[i].retailerAddress;\r\n                    k++;\r\n                    break;\r\n               }\r\n            }\r\n        }\r\n\r\n        return(ids, snames, sbrands, scodes, snums, smanagers, saddress);\r\n    }\r\n\r\n    function getPurchaseHistory(bytes32 _customerCode) public view returns (bytes32[] memory, bytes32[] memory, bytes32[] memory){\r\n        bytes32[] memory productSNs = productsWithCustomer[_customerCode];\r\n        bytes32[] memory retailerCodes = new bytes32[](productSNs.length);\r\n        bytes32[] memory manufacturerCodes = new bytes32[](productSNs.length);\r\n        for(uint i=0; i<productSNs.length; i++){\r\n            retailerCodes[i] = productsForSale[productSNs[i]];\r\n            manufacturerCodes[i] = productsManufactured[productSNs[i]];\r\n        }\r\n        return (productSNs, retailerCodes, manufacturerCodes);\r\n    }\r\n\r\n    //Verify\r\n\r\n    function verifyProduct(bytes32 _productSN, bytes32 _customerCode) public view returns(bool){\r\n        if(productsSold[_productSN] == _customerCode){\r\n            return true;\r\n        }\r\n        else{\r\n            return false;\r\n        }\r\n    }\r\n}",
  "sourcePath": "C:\\Users\\Shubham\\Avoid Counterfeiting Using Blockchain\\contracts\\product.sol",
  "compiler": {
    "name": "solc",
    "version": "0.8.12+commit.f00d7308.Emscripten.clang"
  },
  "schemaVersion": "3.4.14",
  "updatedAt": "2023-08-04T14:44:06.690Z",
  "networkType": "ethereum",
  "devdoc": {
    "kind": "dev",
    "methods": {},
    "version": 1
  },
  "userdoc": {
    "kind": "user",
    "methods": {},
    "version": 1
  }
}